:020000040000FA
:100000000C945D000C947A000C947A000C947A00A5
:100010000C947A000C947A000C947A000C94B00141
:100020000C947A000C947A000C947A000C947A0068
:100030000C947A000C947A000C947A000C947A0058
:100040000C9466010C947A000C947A000C947A005B
:100050000C947A000C947A000C947A000C947A0038
:100060000C947A000C947A00000000080002010051
:100070000003040700000000000000000200000070
:1000800000250028002B0000000000240027002A83
:100090000004040404040404040202020202020331
:1000A000030303030301020408102040800102043B
:1000B0000810200102040810200011241FBECFEFF9
:1000C000D8E0DEBFCDBF11E0A0E0B1E0E4E6FAE0A9
:1000D00002C005900D92A232B107D9F721E0A2E249
:1000E000B1E001C01D92AC33B207E1F70E940C02EF
:1000F0000C9430050C940000EDEAF0E02491E9E95D
:10010000F0E08491882399F090E0880F991FFC011A
:10011000E957FF4FA591B491FC01E358FF4F85913A
:1001200094918FB7F894EC91E22BEC938FBF0895E4
:100130003FB7F8948091380190913901A0913A012C
:10014000B0913B0126B5A89B05C02F3F19F0019641
:10015000A11DB11D3FBFBA2FA92F982F8827BC0121
:10016000CD01620F711D811D911D42E0660F771F49
:10017000881F991F4A95D1F708958F929F92AF9249
:10018000BF92CF92DF92EF92FF926B017C010E94AF
:1001900098004B015C01C114D104E104F104B9F0F1
:1001A0000E949800681979098A099B09683E734082
:1001B0008105910580F321E0C21AD108E108F10818
:1001C00088EE880E83E0981EA11CB11CE4CFFF903E
:1001D000EF90DF90CF90BF90AF909F908F90089559
:1001E0009091000189130DC0ECE7F0E0E4919FEFDE
:1001F00090930001E13009F431C068F1E23009F474
:1002000033C090E0FC01E859FF4F2491FC01EB550D
:10021000FF4F3491FC01EF56FF4FE491EE23D1F0F4
:10022000222351F0233009F43AC078F5213009F443
:100230003CC0223009F43DC0F0E0EE0FFF1FE35850
:10024000FF4FA591B4918FB7F894EC9130953E2370
:100250003C938FBF089510926E00D3CF90916F00A2
:100260009D7F90936F00CDCF909170009D7F909374
:10027000700091E09093B0009091B100987F9460ED
:100280009093B1001092B300BCCF2730A9F0283072
:10029000C9F0243089F6809180008F7D03C0809161
:1002A00080008F7780938000C7CF84B58F7784BD1F
:1002B000C3CF84B58F7DFBCF8091B0008F778093C3
:1002C000B000BACF8091B0008F7DF9CF1F920F920E
:1002D0000FB60F9211242F933F938F939F93AF9359
:1002E000BF938091340190913501A0913601B09176
:1002F00037013091330123E0230F2D3758F5019654
:10030000A11DB11D209333018093340190933501D9
:10031000A0933601B0933701809138019091390153
:10032000A0913A01B0913B010196A11DB11D8093AE
:10033000380190933901A0933A01B0933B01BF91EA
:10034000AF919F918F913F912F910F900FBE0F9082
:100350001F90189526E8230F0296A11DB11DD2CF3C
:100360001F920F920FB60F9211242F933F934F932A
:100370005F936F937F938F939F93AF93BF93EF930D
:10038000FF938091270190912801A0912901B091BC
:100390002A01892B8A2B8B2BD1F190912201E0919C
:1003A0002301F09124018081892780838091270196
:1003B00090912801A0912901B0912A0118161906DF
:1003C0001A061B069CF48091270190912801A091A8
:1003D0002901B0912A010197A109B1098093270150
:1003E00090932801A0932901B0932A01FF91EF91E6
:1003F000BF91AF919F918F917F916F915F914F913D
:100400003F912F910F900FBE0F901F9018958091E4
:1004100000010E94F000EACFCF93DF93CDB7DEB7A3
:10042000AC970FB6F894DEBF0FBECDBF789484B5FD
:10043000826084BD84B5816084BD85B5826085BDE0
:1004400085B5816085BD80916E00816080936E006E
:100450001092810080918100826080938100809160
:100460008100816080938100809180008160809311
:1004700080008091B10084608093B1008091B000D1
:1004800081608093B00080917A00846080937A00CC
:1004900080917A00826080937A0080917A008160F6
:1004A00080937A0080917A00806880937A0010921D
:1004B000C1000E947C0080E1E1E0F1E0DE015196A4
:1004C00001900D928A95E1F780E1E1E1F1E0DE0132
:1004D000119601900D928A95E1F79E012F5F3F4F93
:1004E00038A72FA3CE0141969EA38DA39AA389A3DB
:1004F000AFA1B8A5ED91FD91B8A7AFA3FCA3EBA365
:10050000CF01092E000CAA0BBB0B89A79AA7ABA79A
:10051000BCA7ADA1BEA12D903D90BEA3ADA380917F
:100520000001883071F4ECE7F0E0149117FDA7C1E9
:100530000E947C00112309F437C0123009F0BCC0BE
:1005400033C08F3F09F09BC188E080930001ECE746
:10055000F0E014911F3F09F492C1113009F48CC0EE
:1005600040F0123009F4F3C017FD89C10E947C00ED
:10057000E4CF14BC15BC84B5826084BD85B58160B0
:1005800085BDE9E9F0E08491E82FF0E0EE0FFF1F70
:10059000E358FF4F85919491EDEAF0E084918093C8
:1005A00026010E947C0010E04101B12CA12C60E0EA
:1005B00072E18AE790E0A50191010E94FB04290104
:1005C0003A017A016901F1E0CF1AD108E108F10896
:1005D0002FEFC216D104E104F10409F00CF427C195
:1005E00060E472E48FE090E0A50191010E94FB04B9
:1005F00069017A0181E0C81AD108E108F1081230D6
:1006000009F0CAC082E09FEFC916D104E104F104E9
:1006100009F00CF4A3C160E970ED83E090E0A5015E
:1006200091010E94FB0469017A01A1E0CA1AD10874
:10063000E108F10883E0BFEFCB16D104E104F10437
:1006400009F00CF48BC168E478EE81E090E0A5013C
:1006500091010E94FB0469017A0191E0C91AD10855
:10066000E108F108AFEFCA16D104E104F10411F07A
:100670000CF0B5C084E072C110928000109281002D
:1006800080918100886080938100809181008160E9
:1006900080938100E9E9F0E08491E82FF0E0EE0F2B
:1006A000FF1FE358FF4F85919491EDEAF0E08491AC
:1006B000809325010E947C00B12CA12C60E072E1A6
:1006C0008AE790E0A50191010E94FB0469017A018B
:1006D000B1E0CB1AD108E108F10891E0C114D104CE
:1006E000E1E0EE06F10484F068E478EE81E090E069
:1006F000A50191010E94FB0469017A01F1E0CF1A82
:10070000D108E108F10893E0113009F097C0809119
:100710008100887F892B8093810089A59AA5ABA54C
:10072000BCA52FEF3FEFA901892B8A2B8B2B09F456
:10073000CBC09101220F331FABA1BCA10E941A05AF
:1007400028EE33E040E050E00E94D90483C01092CC
:10075000B0001092B1008091B00082608093B00030
:100760008091B10081608093B100E9E9F0E084916B
:10077000E82FF0E0EE0FFF1FE358FF4F85919491B3
:100780009093240180932301EDEAF0E0849180931B
:1007900022010E947C0008CFEFEFCE16D104E104C5
:1007A000F10409F00CF48EC068E478EE81E090E08A
:1007B000A50191010E94FB0469017A01F1E0CF1AC1
:1007C000D108E108F108112309F4CFC0FFEFCF16DB
:1007D000D104E104F10411F00CF0D0C04BCF64E27D
:1007E00074EF80E090E0A50194010E94FB04690190
:1007F0007A0181E0C81AD108E108F10885E09FEF8D
:10080000C916D104E104F10409F008F4A7C062E1BB
:100810007AE780E090E0A50194010E94FB04690161
:100820007A01B1E0CB1AD108E108F108B9C081E042
:10083000111194C095B5987F892B85BD89A59AA57E
:10084000ABA5BCA52FEF3FEFA901892B8A2B8B2BE2
:1008500009F06FCF1130C1F1123009F447C0111106
:100860000EC0C7BC20932F0130933001409331015B
:100870005093320180916E00826080936E006BA174
:100880007CA1625E7F4F072E000C880B990B0E94A3
:10089000BD00A9A1BAA1EFA1F8A5AE17BF0709F045
:1008A00027CE88E00E94F00068EE73E080E090E0E0
:1008B0000E94BD0080E090E0892B09F4FCCD0E94ED
:1008C0000000F9CD82E0B4CFD0928900C0928800B8
:1008D00020932B0130932C0140932D0150932E0136
:1008E00080916F00826080936F00C9CFC092B30087
:1008F00020932701309328014093290150932A0126
:1009000080917000826080937000B9CF84E02FEFF7
:10091000C216D104E104F10409F008F48BCF73018D
:1009200062019AE0F594E794D794C7949A95D1F729
:10093000F1E0CF1AD108E108F10885E07BCF73011F
:1009400062018AE0F594E794D794C7948A95D1F729
:1009500031E0C31AD108E108F10887E09091B100B5
:10096000987F892B8093B10069CF83E0EFEFCE169B
:10097000D104E104F10409F00CF45CCF62E17AE700
:1009800080E090E0A50194010E94FB0469017A01D6
:10099000A1E0CA1AD108E108F108112309F4B6CF81
:1009A0008FEFC816D104E104F10409F040F686E0A7
:1009B000D5CFA1E21A2EAA1BBB1BFD010DC0AA1F99
:1009C000BB1FEE1FFF1FA217B307E407F50720F0B8
:1009D000A21BB30BE40BF50B661F771F881F991F33
:1009E0001A9469F760957095809590959B01AC017C
:1009F000BD01CF010895052E97FB1EF400940E94BF
:100A0000120557FD07D00E94D90407FC03D04EF40D
:100A10000C94120550954095309521953F4F4F4FBE
:100A20005F4F089590958095709561957F4F8F4F9A
:100A30009F4F08950E942105B7FF0895821B930BD5
:100A40000895A29FB001B39FC001A39F700D811DA7
:100A50001124911DB29F700D811D1124911D0895C7
:100A6000F894FFCFFF060126014A015D018801B815
:100A700001EE010B02C800C800C800C800C800C8C9
:060A800000C80090010017
:107E0000112484B714BE81FFF0D085E080938100F7
:107E100082E08093C00088E18093C10086E0809377
:107E2000C20080E18093C4008EE0C9D0259A86E02C
:107E300020E33CEF91E0309385002093840096BBD3
:107E4000B09BFECF1D9AA8958150A9F7CC24DD24C4
:107E500088248394B5E0AB2EA1E19A2EF3E0BF2EE7
:107E6000A2D0813461F49FD0082FAFD0023811F036
:107E7000013811F484E001C083E08DD089C08234E0
:107E800011F484E103C0853419F485E0A6D080C0E4
:107E9000853579F488D0E82EFF2485D0082F10E0AE
:107EA000102F00270E291F29000F111F8ED06801E7
:107EB0006FC0863521F484E090D080E0DECF843638
:107EC00009F040C070D06FD0082F6DD080E0C81688
:107ED00080E7D80618F4F601B7BEE895C0E0D1E017
:107EE00062D089930C17E1F7F0E0CF16F0E7DF06D8
:107EF00018F0F601B7BEE89568D007B600FCFDCFD4
:107F0000A601A0E0B1E02C9130E011968C91119780
:107F100090E0982F8827822B932B1296FA010C0160
:107F200087BEE89511244E5F5F4FF1E0A038BF0790
:107F300051F7F601A7BEE89507B600FCFDCF97BE46
:107F4000E89526C08437B1F42ED02DD0F82E2BD052
:107F50003CD0F601EF2C8F010F5F1F4F84911BD097
:107F6000EA94F801C1F70894C11CD11CFA94CF0C13
:107F7000D11C0EC0853739F428D08EE10CD085E9AC
:107F80000AD08FE07ACF813511F488E018D01DD067
:107F900080E101D065CF982F8091C00085FFFCCF94
:107FA0009093C60008958091C00087FFFCCF809118
:107FB000C00084FD01C0A8958091C6000895E0E648
:107FC000F0E098E1908380830895EDDF803219F02E
:107FD00088E0F5DFFFCF84E1DECF1F93182FE3DFCA
:107FE0001150E9F7F2DF1F91089580E0E8DFEE27F6
:047FF000FF270994CA
:027FFE00040479
:00000001FF
