:020000040000FA
:100000000C9462000C948A000C948A000C948A0070
:100010000C948A000C948A000C948A000C948A0038
:100020000C948A000C948A000C948A000C948A0028
:100030000C948A000C948A000C948A000C948A0018
:100040000C94DB010C948A000C944B020C94250256
:100050000C948A000C948A000C948A000C948A00F8
:100060000C948A000C948A000000000025002800EF
:100070002B0000000000240027002A0000000000E0
:1000800023002600290004040404040404040202DA
:100090000202020203030303030301020408102007
:1000A0004080010204081020010204081020000012
:1000B0000008000201000003040700000000000027
:1000C00000006B0311241FBECFEFD8E0DEBFCDBF11
:1000D00011E0A0E0B1E0E0E4F7E002C005900D928D
:1000E000AA34B107D9F721E0AAE4B1E001C01D921A
:1000F000A03FB207E1F710E0C2E6D0E004C02197CC
:10010000FE010E949803C136D107C9F70E947D0203
:100110000C949E030C940000FC01538D448D252FFC
:1001200030E0842F90E0821B930B541710F0CF9691
:10013000089501970895FC01918D828D981761F0C3
:10014000A28DAE0FBF2FB11D5D968C91928D9F5FDA
:100150009F73928F90E008958FEF9FEF0895FC01B9
:10016000918D828D981731F0828DE80FF11D858D6C
:1001700090E008958FEF9FEF0895FC01918D228DFF
:10018000892F90E0805C9F4F821B91098F73992784
:100190000895FC01A48DA80FB92FB11DA35ABF4F1C
:1001A0002C91848D90E001968F739927848FA68976
:1001B000B7892C93A089B1898C91837080648C93CA
:1001C000938D848D981306C00288F389E02D808179
:1001D0008F7D80830895EF92FF920F931F93CF93AB
:1001E000DF93EC0181E0888F9B8D8C8D98131AC072
:1001F000E889F989808185FF15C09FB7F894EE8959
:10020000FF896083E889F9898081837080648083B5
:100210009FBF81E090E0DF91CF911F910F91FF9000
:10022000EF900895F62E0B8D10E00F5F1F4F0F73A8
:100230001127E02E8C8D8E110CC00FB607FCFACF63
:10024000E889F989808185FFF5CFCE010E94C90038
:10025000F1CFEB8DEC0FFD2FF11DE35AFF4FF08234
:100260009FB7F8940B8FEA89FB8980818062CFCF9A
:10027000CF93DF93EC01888D8823B9F0AA89BB89DD
:10028000E889F9898C9185FD03C0808186FD0DC0C8
:100290000FB607FCF7CF8C9185FFF2CF808185FFE9
:1002A000EDCFCE010E94C900E9CFDF91CF91089533
:1002B00083E591E00E94BD0021E0892B09F420E054
:1002C000822F089580E090E0892B29F00E94580148
:1002D00081110C94000008953FB7F89480914F016C
:1002E00090915001A0915101B091520126B5A89B67
:1002F00005C02F3F19F00196A11DB11D3FBFBA2FB8
:10030000A92F982F8827BC01CD01620F711D811D77
:10031000911D42E0660F771F881F991F4A95D1F7FC
:100320000895AF92BF92CF92DF92EF92FF920F9318
:100330001F93CF93DF936C017B018B01040F151F7B
:10034000EB015E01AE18BF08C017D10759F06991E3
:10035000D601ED91FC910190F081E02DC601099547
:10036000892B79F7C501DF91CF911F910F91FF90F4
:10037000EF90DF90CF90BF90AF900895CF93DF9331
:10038000FC0101900020E9F73197AF01481B590BA0
:10039000BC0183E591E00E949101EC0142E050E054
:1003A00062E171E083E591E00E9491018C0F9D1F55
:1003B000DF91CF9108951F920F920FB60F921124E3
:1003C0002F933F938F939F93AF93BF9380914B0154
:1003D00090914C01A0914D01B0914E0130914A0194
:1003E00023E0230F2D3758F50196A11DB11D209351
:1003F0004A0180934B0190934C01A0934D01B0931F
:100400004E0180914F0190915001A0915101B09106
:1004100052010196A11DB11D80934F01909350018F
:10042000A0935101B0935201BF91AF919F918F91D1
:100430003F912F910F900FBE0F901F90189526E8B7
:10044000230F0296A11DB11DD2CF1F920F920FB69E
:100450000F9211242F933F934F935F936F937F934A
:100460008F939F93AF93BF93EF93FF9383E591E0B7
:100470000E94C900FF91EF91BF91AF919F918F9121
:100480007F916F915F914F913F912F910F900FBE90
:100490000F901F9018951F920F920FB60F92112474
:1004A0002F938F939F93EF93FF93E0916301F091CC
:1004B00064018081E0916901F0916A0182FD1BC0B5
:1004C000908180916C018F5F8F7320916D018217F5
:1004D00041F0E0916C01F0E0ED5AFE4F958F809372
:1004E0006C01FF91EF919F918F912F910F900FBE13
:1004F0000F901F9018958081F4CF789484B5826016
:1005000084BD84B5816084BD85B5826085BD85B5B7
:10051000816085BD80916E00816080936E00109235
:1005200081008091810082608093810080918100B0
:100530008160809381008091800081608093800041
:100540008091B10084608093B1008091B00081609F
:100550008093B00080917A00846080937A008091CB
:100560007A00826080937A0080917A008160809323
:100570007A0080917A00806880937A001092C1009E
:10058000C7EAD0E0FE01249103E910E0F80184916C
:100590008823C9F090E0880F991FFC01EE58FF4FA7
:1005A000A591B491FC01E859FF4F459154913FB793
:1005B000F8949C91822F809598239C93FA019081C6
:1005C000892380833FBF85E191E00E94BE013BEB20
:1005D000832E30E0932E40E0A42E40E0B42EF401B0
:1005E0008491FE019491F8012491222309F470C0B2
:1005F000882359F0833009F454C008F047C0813093
:1006000009F455C0823009F456C0E22FF0E0EE0F35
:10061000FF1FE458FF4FA591B4918C91982309F4E2
:1006200057C08EE291E00E94BE010E946C012B0136
:100630003C0184EFC82EDD24D394E12CF12C0E94E0
:100640006C016419750986099709683E7340810534
:100650009105A8F3F1E0CF1AD108E108F10828EEDE
:10066000420E23E0521E611C711CC114D104E1042E
:10067000F10429F7A114B10409F4B1CF0E94580183
:10068000882309F4ACCF0E940000A9CF8730B1F0D5
:100690008830D1F0843009F0B8CF809180008F7D10
:1006A00003C0809180008F7780938000AECF84B5A7
:1006B0008F7784BDAACF84B58F7DFBCF8091B000AA
:1006C0008F778093B000A1CF8091B0008F7DF9CF5C
:1006D0008FE391E0A8CFE3E5F1E01382128288EE88
:1006E00093E0A0E0B0E084839583A683B78384E0A1
:1006F00091E09183808385EC90E09587848784ECFA
:1007000090E09787868780EC90E0918B808B81ECDE
:1007100090E0938B828B82EC90E0958B848B86ECBF
:1007200090E0978B868B118E128E138E148E089507
:10073000EE0FFF1F0590F491E02D0994F894FFCF80
:1007400000000000EB0091018C003801BD009B000F
:10075000AF000D0A00504952204D6F74696F6E2032
:1007600053656E736F722072656164792E004D6FF0
:1007700074696F6E20646574656374656421004EEE
:0A0780006F206D6F74696F6E2E001C
:107E0000112484B714BE81FFF0D085E080938100F7
:107E100082E08093C00088E18093C10086E0809377
:107E2000C20080E18093C4008EE0C9D0259A86E02C
:107E300020E33CEF91E0309385002093840096BBD3
:107E4000B09BFECF1D9AA8958150A9F7CC24DD24C4
:107E500088248394B5E0AB2EA1E19A2EF3E0BF2EE7
:107E6000A2D0813461F49FD0082FAFD0023811F036
:107E7000013811F484E001C083E08DD089C08234E0
:107E800011F484E103C0853419F485E0A6D080C0E4
:107E9000853579F488D0E82EFF2485D0082F10E0AE
:107EA000102F00270E291F29000F111F8ED06801E7
:107EB0006FC0863521F484E090D080E0DECF843638
:107EC00009F040C070D06FD0082F6DD080E0C81688
:107ED00080E7D80618F4F601B7BEE895C0E0D1E017
:107EE00062D089930C17E1F7F0E0CF16F0E7DF06D8
:107EF00018F0F601B7BEE89568D007B600FCFDCFD4
:107F0000A601A0E0B1E02C9130E011968C91119780
:107F100090E0982F8827822B932B1296FA010C0160
:107F200087BEE89511244E5F5F4FF1E0A038BF0790
:107F300051F7F601A7BEE89507B600FCFDCF97BE46
:107F4000E89526C08437B1F42ED02DD0F82E2BD052
:107F50003CD0F601EF2C8F010F5F1F4F84911BD097
:107F6000EA94F801C1F70894C11CD11CFA94CF0C13
:107F7000D11C0EC0853739F428D08EE10CD085E9AC
:107F80000AD08FE07ACF813511F488E018D01DD067
:107F900080E101D065CF982F8091C00085FFFCCF94
:107FA0009093C60008958091C00087FFFCCF809118
:107FB000C00084FD01C0A8958091C6000895E0E648
:107FC000F0E098E1908380830895EDDF803219F02E
:107FD00088E0F5DFFFCF84E1DECF1F93182FE3DFCA
:107FE0001150E9F7F2DF1F91089580E0E8DFEE27F6
:047FF000FF270994CA
:027FFE00040479
:00000001FF
