:020000040000FA
:100000000C9462000C948A000C948A000C948A0070
:100010000C948A000C948A000C948A000C948A0038
:100020000C948A000C948A000C948A000C948A0028
:100030000C948A000C948A000C948A000C948A0018
:100040000C94F4010C948A000C9464020C943E020B
:100050000C948A000C948A000C948A000C948A00F8
:100060000C948A000C948A000000000024002700F1
:100070002A000000000023002600290000000000E4
:10008000250028002B0004040404040404040202D4
:100090000202020203030303030301020408102007
:1000A0004080010204081020010204081020000012
:1000B0000008000201000003040700000000000027
:1000C0000000E80311241FBECFEFD8E0DEBFCDBF94
:1000D00011E0A0E0B1E0EAE3F8E002C005900D9283
:1000E000A833B107D9F721E0A8E3B1E001C01D9220
:1000F000AF3DB207E1F710E0C2E6D0E004C02197BF
:10010000FE010E941504C136D107C9F70E9496026C
:100110000C941B040C940000833081F028F481308F
:1001200099F08230A9F008958730A9F08830C9F09D
:100130008430B1F4809180008F7D03C08091800075
:100140008F7780938000089584B58F7784BD08955C
:1001500084B58F7DFBCF8091B0008F778093B00006
:1001600008958091B0008F7DF9CF3FB7F8948091CA
:100170003E0190913F01A0914001B091410126B50F
:10018000A89B05C02F3F19F00196A11DB11D3FBFCF
:10019000BA2FA92F982F8827BC01CD01620F711D9E
:1001A000811D911D42E0660F771F881F991F4A9598
:1001B000D1F70895AF92BF92CF92DF92EF92FF9264
:1001C0000F931F93CF93DF936C017B018B01040F7F
:1001D000151FEB015E01AE18BF08C017D10759F01B
:1001E0006991D601ED91FC910190F081E02DC6015D
:1001F0000995892B79F7C501DF91CF911F910F9157
:10020000FF90EF90DF90CF90BF90AF900895FC01EA
:10021000538D448D252F30E0842F90E0821B930B6B
:10022000541710F0CF96089501970895FC01918D11
:10023000828D981761F0A28DAE0FBF2FB11D5D9614
:100240008C91928D9F5F9F73928F90E008958FEFB6
:100250009FEF0895FC01918D828D981731F0828D6A
:10026000E80FF11D858D90E008958FEF9FEF0895C1
:10027000FC01918D228D892F90E0805C9F4F821B25
:1002800091098F739927089582E491E00E943801C3
:1002900021E0892B09F420E0822F089580E090E08E
:1002A000892B29F00E94440181110C9400000895CB
:1002B000FC01A48DA80FB92FB11DA35ABF4F2C91DB
:1002C000848D90E001968F739927848FA689B789D2
:1002D0002C93A089B1898C91837080648C93938DC9
:1002E000848D981306C00288F389E02D80818F7D6C
:1002F00080830895EF92FF920F931F93CF93DF9324
:10030000EC0181E0888F9B8D8C8D98131AC0E88951
:10031000F989808185FF15C09FB7F894EE89FF8920
:100320006083E889F98980818370806480839FBFBE
:1003300081E090E0DF91CF911F910F91FF90EF90BE
:100340000895F62E0B8D10E00F5F1F4F0F731127CE
:10035000E02E8C8D8E110CC00FB607FCFACFE88909
:10036000F989808185FFF5CFCE010E945801F1CF38
:10037000EB8DEC0FFD2FF11DE35AFF4FF0829FB77D
:10038000F8940B8FEA89FB8980818062CFCFCF936D
:10039000DF93EC01888D8823B9F0AA89BB89E889AD
:1003A000F9898C9185FD03C0808186FD0DC00FB653
:1003B00007FCF7CF8C9185FFF2CF808185FFEDCFD1
:1003C000CE010E945801E9CFDF91CF910895FC0141
:1003D00001900020E9F73197AF01481B590BBC0190
:1003E00082E491E00C94DA001F920F920FB60F9204
:1003F00011242F933F938F939F93AF93BF9380913B
:100400003A0190913B01A0913C01B0913D013091A6
:10041000390123E0230F2D3758F50196A11DB11D99
:100420002093390180933A0190933B01A0933C01C2
:10043000B0933D0180913E0190913F01A091400118
:10044000B09141010196A11DB11D80933E01909391
:100450003F01A0934001B0934101BF91AF919F91A3
:100460008F913F912F910F900FBE0F901F90189575
:1004700026E8230F0296A11DB11DD2CF1F920F9225
:100480000FB60F9211242F933F934F935F936F9367
:100490007F938F939F93AF93BF93EF93FF9382E4E8
:1004A00091E00E945801FF91EF91BF91AF919F9110
:1004B0008F917F916F915F914F913F912F910F900D
:1004C0000FBE0F901F9018951F920F920FB60F92AC
:1004D00011242F938F939F93EF93FF93E0915201F9
:1004E000F09153018081E0915801F091590182FD12
:1004F0001BC0908180915B018F5F8F7320915C01A5
:10050000821741F0E0915B01F0E0EE5BFE4F958FCA
:1005100080935B01FF91EF919F918F912F910F90AD
:100520000FBE0F901F9018958081F4CF789484B5FA
:10053000826084BD84B5816084BD85B5826085BDDF
:1005400085B5816085BD80916E00816080936E006D
:10055000109281008091810082608093810080915F
:100560008100816080938100809180008160809310
:1005700080008091B10084608093B1008091B000D0
:1005800081608093B00080917A00846080937A00CB
:1005900080917A00826080937A0080917A008160F5
:1005A00080937A0080917A00806880937A0010921C
:1005B000C100E0915201F091530182E08083E0910B
:1005C0004E01F0914F011082E0915001F0915101E4
:1005D0008FEC808310925A01E0915601F0915701FF
:1005E00086E08083E0915401F09155018081806123
:1005F0008083E0915401F09155018081886080836F
:10060000E0915401F0915501808180688083E091F0
:100610005401F091550180818F7D8083CCE9D0E039
:10062000FE01249108E810E0F80184918823C9F0C4
:1006300090E0880F991FFC01E859FF4FA591B491F4
:10064000FC01E458FF4F459154913FB7F8949C91B9
:10065000822F809598239C93FA019081892380832F
:100660003FBF57EA252E50E0352EF101249163E972
:10067000862E60E0962EF4018491882399F090E014
:10068000880F991FFC01E859FF4FA591B491FC0117
:10069000E458FF4F859194918FB7F8949C91292B42
:1006A0002C938FBF89E191E00E94E7018CE291E0F9
:1006B0000E94E70130E0A32E30E0B32EE0EBF0E043
:1006C0008491FE01F490F801E490EE2009F47BC0DF
:1006D00081110E948C00EE2DF0E0EE0FFF1FEE580E
:1006E000FF4FA591B4918C91F82291E080E009F43C
:1006F00090E0E92EF82EFE2DF1707F2E80913801CA
:10070000F81709F430C08FE291E00E94E70186E11A
:1007100091E0E114F10411F482E191E00E94E7011B
:100720008CE291E00E94E701EBEBF0E08491F101B3
:10073000C490F401D490DD20A1F081110E948C00BE
:10074000ED2DF0E0EE0FFF1FE458FF4FA591B4919F
:100750009FB7F8948C91EF28C9F5C094C822CC9229
:100760009FBF709238010E94B5006B017C0182E34B
:10077000482E512C612C712C0E94B5006C197D09FA
:100780008E099F09683E734081059105A8F321E019
:10079000421A51086108710888EEC80E83E0D81E1D
:1007A000E11CF11C411451046104710429F7A114E6
:1007B000B10409F483CF0E944401882309F47ECF59
:1007C0000E9400007BCFF12CE12C95CFC82AC7CF27
:1007D000E2E4F1E01382128288EE93E0A0E0B0E060
:1007E00084839583A683B78384E091E0918380839B
:1007F00085EC90E09587848784EC90E097878687E6
:1008000080EC90E0918B808B81EC90E0938B828BDD
:1008100082EC90E0958B848B86EC90E0978B868BB6
:10082000118E128E138E148E0895EE0FFF1F0590F9
:10083000F491E02D0994F894FFCF000000007A01B4
:10084000DA000701C701380116012A014F464600A8
:100850004F4E00536C696465205377697463682058
:100860005265616479000D0A005377697463683AD0
:02087000200066
:107E0000112484B714BE81FFF0D085E080938100F7
:107E100082E08093C00088E18093C10086E0809377
:107E2000C20080E18093C4008EE0C9D0259A86E02C
:107E300020E33CEF91E0309385002093840096BBD3
:107E4000B09BFECF1D9AA8958150A9F7CC24DD24C4
:107E500088248394B5E0AB2EA1E19A2EF3E0BF2EE7
:107E6000A2D0813461F49FD0082FAFD0023811F036
:107E7000013811F484E001C083E08DD089C08234E0
:107E800011F484E103C0853419F485E0A6D080C0E4
:107E9000853579F488D0E82EFF2485D0082F10E0AE
:107EA000102F00270E291F29000F111F8ED06801E7
:107EB0006FC0863521F484E090D080E0DECF843638
:107EC00009F040C070D06FD0082F6DD080E0C81688
:107ED00080E7D80618F4F601B7BEE895C0E0D1E017
:107EE00062D089930C17E1F7F0E0CF16F0E7DF06D8
:107EF00018F0F601B7BEE89568D007B600FCFDCFD4
:107F0000A601A0E0B1E02C9130E011968C91119780
:107F100090E0982F8827822B932B1296FA010C0160
:107F200087BEE89511244E5F5F4FF1E0A038BF0790
:107F300051F7F601A7BEE89507B600FCFDCF97BE46
:107F4000E89526C08437B1F42ED02DD0F82E2BD052
:107F50003CD0F601EF2C8F010F5F1F4F84911BD097
:107F6000EA94F801C1F70894C11CD11CFA94CF0C13
:107F7000D11C0EC0853739F428D08EE10CD085E9AC
:107F80000AD08FE07ACF813511F488E018D01DD067
:107F900080E101D065CF982F8091C00085FFFCCF94
:107FA0009093C60008958091C00087FFFCCF809118
:107FB000C00084FD01C0A8958091C6000895E0E648
:107FC000F0E098E1908380830895EDDF803219F02E
:107FD00088E0F5DFFFCF84E1DECF1F93182FE3DFCA
:107FE0001150E9F7F2DF1F91089580E0E8DFEE27F6
:047FF000FF270994CA
:027FFE00040479
:00000001FF
