:020000040000FA
:100000000C945D000C9485000C9485000C94850084
:100010000C9485000C9485000C9485000C9485004C
:100020000C9485000C9485000C9485000C949B0323
:100030000C9485000C9485000C9485000C9485002C
:100040000C94F9020C9485000C9469030C944303FE
:100050000C9485000C9485000C9485000C9485000C
:100060000C9485000C9485000000000024002700FB
:100070002A0000000000250028002B0004040404CE
:100080000404040402020202020203030303030342
:10009000010204081020408001020408102001021F
:1000A00004081020000000080002010000030407FB
:1000B0000000000000000000570411241FBECFEF15
:1000C000D8E0DEBFCDBF11E0A0E0B1E0E2EFFCE0A0
:1000D00002C005900D92A833B107D9F722E0A8E33A
:1000E000B1E001C01D92A730B207E1F710E0CDE505
:1000F000D0E004C02197FE010E947106CC35D107E3
:10010000C9F70E94B4040C9477060C9400008F92F7
:100110009F92AF92BF92FF920F931F93CF93DF9363
:100120008F3F980709F461C0853B910511F484EB7A
:1001300090E0F09004022BE02F1508F44CC02091C1
:10014000060208E512E0021B110927FD1395000FB6
:10015000111F000F111F20910502C8E8D0E0C21B3B
:10016000D10927FDD395CC0FDD1FCC0FDD1F4E012C
:100170000D2E000CAA08BB089801012E000C440BA0
:10018000550B281939094A095B09DC010E942C0624
:1001900024EB30E040E050E00E940206820E931E05
:1001A000A41EB51E8C169D062CF0E8018016910643
:1001B0000CF4E4012297CC0FDD1F2FB7F8948F2D9C
:1001C00090E0FC01EE0FFF1FE80FF91FE152FE4F18
:1001D000D283C1832FBFDF91CF911F910F91FF90E9
:1001E000BF90AF909F908F90089590E080E0A1CF56
:1001F00090E0FC01EC55FF4F2491FC01E057FF4FCC
:100200003491FC01E458FF4FE491EE23C9F022231E
:1002100039F0233001F1A8F4213019F1223029F10D
:10022000F0E0EE0FFF1FEE58FF4FA591B4918FB78E
:10023000F894EC91611126C030953E233C938FBF1A
:1002400008952730A9F02830C9F0243049F780916B
:1002500080008F7D03C0809180008F778093800025
:10026000DFCF84B58F7784BDDBCF84B58F7DFBCFA7
:100270008091B0008F778093B000D2CF8091B00092
:100280008F7DF9CF3E2BDACF3FB7F89480913E01B6
:1002900090913F01A0914001B091410126B5A89BEA
:1002A00005C02F3F19F00196A11DB11D3FBFBA2F08
:1002B000A92F982F8827BC01CD01620F711D811DC8
:1002C000911D42E0660F771F881F991F4A95D1F74D
:1002D00008958F929F92AF92BF92CF92DF92EF924A
:1002E000FF924B015C010E9444016B017C010E9462
:1002F00044016C197D098E099F09683E7340810590
:100300009105A8F321E0821A9108A108B10888EEAE
:10031000C80E83E0D81EE11CF11C81149104A104D5
:10032000B10429F7FF90EF90DF90CF90BF90AF908E
:100330009F908F900895AF92BF92CF92DF92EF92ED
:10034000FF920F931F93CF93DF936C017B018B017F
:10035000040F151FEB015E01AE18BF08C017D107CF
:1003600059F06991D601ED91FC910190F081E02D59
:10037000C6010995892B79F7C501DF91CF911F91AE
:100380000F91FF90EF90DF90CF90BF90AF900895C6
:10039000FC01538D448D252F30E0842F90E0821B8B
:1003A000930B541710F0CF96089501970895FC0110
:1003B000918D828D981761F0A28DAE0FBF2FB11D68
:1003C0005D968C91928D9F5F9F73928F90E00895C0
:1003D0008FEF9FEF0895FC01918D828D981731F07A
:1003E000828DE80FF11D858D90E008958FEF9FEFCE
:1003F0000895FC01918D228D892F90E0805C9F4FA4
:10040000821B91098F739927089582E491E00E94DD
:10041000F90121E0892B09F420E0822F089580E082
:1004200090E0892B29F00E94050281110C940000B4
:100430000895FC01A48DA80FB92FB11DA35ABF4F79
:100440002C91848D90E001968F739927848FA689D3
:10045000B7892C93A089B1898C91837080648C9327
:10046000938D848D981306C00288F389E02D8081D6
:100470008F7D80830895EF92FF920F931F93CF9308
:10048000DF93EC0181E0888F9B8D8C8D98131AC0CF
:10049000E889F989808185FF15C09FB7F894EE89B6
:1004A000FF896083E889F989808183708064808313
:1004B0009FBF81E090E0DF91CF911F910F91FF905E
:1004C000EF900895F62E0B8D10E00F5F1F4F0F7306
:1004D0001127E02E8C8D8E110CC00FB607FCFACFC1
:1004E000E889F989808185FFF5CFCE010E94190244
:1004F000F1CFEB8DEC0FFD2FF11DE35AFF4FF08292
:100500009FB7F8940B8FEA89FB8980818062CFCFF7
:10051000CF93DF93EC01888D8823B9F0AA89BB893A
:10052000E889F9898C9185FD03C0808186FD0DC025
:100530000FB607FCF7CF8C9185FFF2CF808185FF46
:10054000EDCFCE010E941902E9CFDF91CF9108953E
:10055000FC0101900020E9F73197AF01481B590BCE
:10056000BC0182E491E00C949B018F929F92AF9228
:10057000BF920F931F93CF93DF93CDB7DEB7A197B1
:100580000FB6F894DEBF0FBECDBF19A2423008F4FB
:100590004AE08E010F5D1F4F842E912CB12CA12CAF
:1005A000A50194010E943406E62FB901CA01EA3080
:1005B000F4F4E05DD801EE938D01232B242B252B41
:1005C00079F790E080E0109719F0CD010E94A80221
:1005D000A1960FB6F894DEBF0FBECDBFDF91CF91CD
:1005E0001F910F91BF90AF909F908F900895E95CFD
:1005F000E1CF1F920F920FB60F9211242F933F93CA
:100600008F939F93AF93BF9380913A0190913B0159
:10061000A0913C01B0913D013091390123E0230FBD
:100620002D3758F50196A11DB11D209339018093F6
:100630003A0190933B01A0933C01B0933D0180911E
:100640003E0190913F01A0914001B091410101967E
:10065000A11DB11D80933E0190933F01A0934001E5
:10066000B0934101BF91AF919F918F913F912F9195
:100670000F900FBE0F901F90189526E8230F02963B
:10068000A11DB11DD2CF1F920F920FB60F92112450
:100690002F933F934F935F936F937F938F939F938A
:1006A000AF93BF93EF93FF9382E491E00E9419020E
:1006B000FF91EF91BF91AF919F918F917F916F913A
:1006C0005F914F913F912F910F900FBE0F901F9010
:1006D00018951F920F920FB60F9211242F938F939C
:1006E0009F93EF93FF93E0915201F091530180812A
:1006F000E0915801F091590182FD1BC090818091D9
:100700005B018F5F8F7320915C01821741F0E09154
:100710005B01F0E0EE5BFE4F958F80935B01FF91F4
:10072000EF919F918F912F910F900FBE0F901F907F
:1007300018958081F4CF1F920F920FB60F9211245B
:100740002F933F934F935F936F937F938F939F93D9
:10075000AF93BF93CF93DF93EF93FF9380913801D3
:10076000C0910302D0E087FF24C010928500109250
:100770008400809138018F5F809338018091380127
:10078000082E000C990B8C179D0724F480913801DA
:100790008C30C4F18091840090918500049680345F
:1007A0009C4908F47AC08091840090918500049659
:1007B00076C080913801082E000C990B8C179D078C
:1007C000C4F6E09138018E2FEE0F990BFC01EE0F6D
:1007D000FF1FE80FF91FE152FE4F808186FFC9CF4E
:1007E000E09138018E2FEE0F990BFC01EE0FFF1FE9
:1007F000E80FF91FE152FE4F808160E08F730E9485
:10080000F800B7CF2091840030918500E091380145
:100810008E2FEE0F990BFC01EE0FFF1FE80FF91F53
:10082000E152FE4F81819281820F931F9093890044
:1008300080938800E09138018E2FEE0F990BFC0118
:10084000EE0FFF1FE80FF91FE152FE4F808186FF78
:1008500011C0E09138018E2FEE0F990BFC01EE0FC5
:10086000FF1FE80FF91FE152FE4F808161E08F7397
:100870000E94F800FF91EF91DF91CF91BF91AF916E
:100880009F918F917F916F915F914F913F912F91A8
:100890000F900FBE0F901F90189580E49CE99093E5
:1008A0008900809388008FEF80933801E3CF109206
:1008B00045011092440188EE93E0A0E0B0E08093FF
:1008C000460190934701A0934801B093490184E009
:1008D00091E0909343018093420185EC90E09093E6
:1008E0004F0180934E0184EC90E0909351018093EE
:1008F000500180EC90E0909353018093520181EC81
:1009000090E0909355018093540182EC90E0909395
:1009100057018093560186EC90E0909359018093A3
:10092000580110925B0110925C0110925D011092CF
:100930005E01809103028C3098F491E0980F9093BF
:1009400003028093040290E0FC01EE0FFF1FE80F0A
:10095000F91FE152FE4F88EB9BE09283818308955B
:100960008FEF809304020895789484B5826084BDEB
:1009700084B5816084BD85B5826085BD85B58160A3
:1009800085BD80916E00816080936E001092810021
:1009900080918100826080938100809181008160DC
:1009A000809381008091800081608093800080919D
:1009B000B10084608093B1008091B0008160809329
:1009C000B00080917A00846080937A0080917A00F0
:1009D000826080937A0080917A00816080937A00AF
:1009E00080917A00806880937A001092C100809193
:1009F00004028C3008F068C0E6E9F0E02491E2E8F7
:100A0000F0E08491882399F090E0880F991FFC0111
:100A1000E859FF4FA591B491FC01EE58FF4F859125
:100A200094918FB7F894EC91E22BEC938FBF809167
:100A30000402282F30E0F901EE0FFF1FE20FF31F31
:100A4000E152FE4F9081907C966090831092050257
:100A5000109206022CE0622F0E946506829FB00170
:100A6000112430E020E0AB01420F531FFA01EE0FDA
:100A7000FF1FE40FF51FE152FE4F908196FD16C057
:100A80002F5F3F4F2C30310571F781110FC010924D
:100A9000800082E080938100109285001092840093
:100AA000B19A80916F00826080936F00E0910402A0
:100AB0008E2F90E0FC01EE0FFF1FE80FF91FE152AF
:100AC000FE4F80818064808390E080E00E948700F8
:100AD00064EF71E080E090E00E946901E0915201D2
:100AE000F091530182E08083E0914E01F0914F013B
:100AF0001082E0915001F09151018FEC80831092AF
:100B00005A01E0915601F091570186E08083E0910F
:100B10005401F0915501808180618083E0915401FE
:100B2000F0915501808188608083E0915401F091BB
:100B30005501808180688083E0915401F0915501D6
:100B400080818F7D808382E191E00E94A80284E20F
:100B500091E00E94A802C0E0D0E0C12CD12C760127
:100B6000C6010E94870087E291E00E94A8024AE045
:100B7000C701B6010E94B50284E291E00E94A8027A
:100B80006AE070E080E090E00E9469018FEFC81A8F
:100B9000D80AE80AF80A85EBC816D104E104F10482
:100BA000F9F684EBC82ED12CE12CF12CC6010E9461
:100BB000870087E291E00E94A8024AE0C701B601DF
:100BC0000E94B50284E291E00E94A8026AE070E00F
:100BD00080E090E00E94690181E0C81AD108E10834
:100BE000F1088FEFC816D806E806F806F9F6209740
:100BF00009F4B3CF0E940502882309F4AECF0E9406
:100C00000000ABCF052E97FB1EF400940E9419063E
:100C100057FD07D00E94340607FC03D04EF40C9415
:100C2000190650954095309521953F4F4F4F5F4F96
:100C3000089590958095709561957F4F8F4F9F4F48
:100C400008950E945606A59F900DB49F900DA49FF5
:100C5000800D911D11240895B7FF0C9421060E9468
:100C60002106821B930B0895A1E21A2EAA1BBB1B1F
:100C7000FD010DC0AA1FBB1FEE1FFF1FA217B30768
:100C8000E407F50720F0A21BB30BE40BF50B661F7E
:100C9000771F881F991F1A9469F760957095809542
:100CA00090959B01AC01BD01CF010895A29FB001B9
:100CB000B39FC001A39F700D811D1124911DB29F90
:100CC000700D811D1124911D0895991B79E004C0B8
:100CD000991F961708F0961B881F7A95C9F780957B
:100CE0000895EE0FFF1F0590F491E02D0994F894FC
:100CF000FFCF000000003B029B01C8018802F90100
:100D0000D701EB01536572766F204D6F746F7220BF
:100D10005265616479000D0A00536572766F207028
:0A0D20006F736974696F6E3A20006A
:107E0000112484B714BE81FFF0D085E080938100F7
:107E100082E08093C00088E18093C10086E0809377
:107E2000C20080E18093C4008EE0C9D0259A86E02C
:107E300020E33CEF91E0309385002093840096BBD3
:107E4000B09BFECF1D9AA8958150A9F7CC24DD24C4
:107E500088248394B5E0AB2EA1E19A2EF3E0BF2EE7
:107E6000A2D0813461F49FD0082FAFD0023811F036
:107E7000013811F484E001C083E08DD089C08234E0
:107E800011F484E103C0853419F485E0A6D080C0E4
:107E9000853579F488D0E82EFF2485D0082F10E0AE
:107EA000102F00270E291F29000F111F8ED06801E7
:107EB0006FC0863521F484E090D080E0DECF843638
:107EC00009F040C070D06FD0082F6DD080E0C81688
:107ED00080E7D80618F4F601B7BEE895C0E0D1E017
:107EE00062D089930C17E1F7F0E0CF16F0E7DF06D8
:107EF00018F0F601B7BEE89568D007B600FCFDCFD4
:107F0000A601A0E0B1E02C9130E011968C91119780
:107F100090E0982F8827822B932B1296FA010C0160
:107F200087BEE89511244E5F5F4FF1E0A038BF0790
:107F300051F7F601A7BEE89507B600FCFDCF97BE46
:107F4000E89526C08437B1F42ED02DD0F82E2BD052
:107F50003CD0F601EF2C8F010F5F1F4F84911BD097
:107F6000EA94F801C1F70894C11CD11CFA94CF0C13
:107F7000D11C0EC0853739F428D08EE10CD085E9AC
:107F80000AD08FE07ACF813511F488E018D01DD067
:107F900080E101D065CF982F8091C00085FFFCCF94
:107FA0009093C60008958091C00087FFFCCF809118
:107FB000C00084FD01C0A8958091C6000895E0E648
:107FC000F0E098E1908380830895EDDF803219F02E
:107FD00088E0F5DFFFCF84E1DECF1F93182FE3DFCA
:107FE0001150E9F7F2DF1F91089580E0E8DFEE27F6
:047FF000FF270994CA
:027FFE00040479
:00000001FF
